:100000000C942A000C9447000C9447000C94470071
:100010000C9447000C9447000C9447000C94470044
:100020000C9447000C9447000C9447000C94470034
:100030000C9447000C9447000C9447000C94470024
:100040000C9447000C9447000C9447000C94470014
:100050000C94470011241FBECFE5D8E0DEBFCDBF12
:1000600012E0A0E6B0E0E4E2FEE502C005900D92E9
:10007000AA36B107D9F712E0AAE6B2E001C01D9294
:10008000AF36B107E1F70E94571F0C94102F0C9464
:100090000000EF92FF920F931F937B018C0120E0F1
:1000A00030E040E05FE40E94490388238CF0C801FF
:1000B000B70120E030E040E05FE40E94C1010E940F
:1000C000A9039B01AC01205030404040504806C07D
:1000D000C801B7010E94A9039B01AC01B901CA0183
:1000E0001F910F91FF90EF900895A0E0B0E0EBE733
:1000F000F0E00C94D92EDC012B01FA019C91923096
:1001000008F439C1EB018881823008F433C194309E
:1001100069F4843009F02FC111969C91119789815F
:10012000981709F428C1A4E4B2E025C1843009F489
:1001300021C18230A9F4923009F01DC19A01AD01AC
:1001400088E0EA010990AE01E90109929E0181501F
:10015000C1F7E201898111969C918923818308C1AD
:10016000923009F407C112962D903C901397EB0141
:100170008A819B811496AD90BD90CD90DC901797AD
:10018000EC80FD800E811F819101281B390BB90184
:1001900037FF04C066277727621B730B6032710537
:1001A0000CF061C0121613066CF537014801062EDB
:1001B00004C096948794779467940A94D2F721E0C8
:1001C00030E040E050E004C0220F331F441F551FB1
:1001D0006A95D2F721503040404050402E213F21B7
:1001E00040235123211531054105510521F021E01E
:1001F00030E040E050E079018A01E628F72808293C
:1002000019293CC0232BD1F1260E371E350146019A
:10021000062E04C096948794779467940A94D2F734
:1002200021E030E040E050E004C0220F331F441FC3
:10023000551F6A95D2F721503040404050402A2146
:100240003B214C215D21211531054105510521F04E
:1002500021E030E040E050E059016A01A628B728CB
:10026000C828D9280BC0821593052CF01C01AA249C
:10027000BB24650103C0EE24FF24870111969C91E5
:10028000D20111968C91981709F445C0992339F041
:10029000A80197012A193B094C095D0906C0A6016E
:1002A00095012E193F09400B510B57FD08C01182D3
:1002B0003382228224833583468357831DC081E0A5
:1002C00081833382228288279927DC01821B930B4A
:1002D000A40BB50B84839583A683B7830DC0220F2F
:1002E000331F441F551F24833583468357838281E0
:1002F000938101979383828324813581468157813D
:10030000DA01C9010197A109B1098F5F9F4FAF4F72
:10031000BF4328F30BC0918333822282EA0CFB1C7B
:100320000C1D1D1DE482F5820683178383E0808304
:10033000248135814681578157FF1AC0C901AA27F8
:1003400097FDA095BA2F81709070A070B0705695EF
:10035000479537952795822B932BA42BB52B848318
:100360009583A683B7838281938101969383828349
:10037000DF0101C0D201CD01CDB7DEB7E2E10C94BF
:10038000F52EA0E2B0E0E7ECF1E00C94E52E6983F5
:100390007A838B839C832D833E834F835887E9E048
:1003A000EE2EF12CEC0EFD1ECE010196B7010E943F
:1003B000D2048E010F5E1F4FCE010596B8010E9438
:1003C000D2048A8991E089278A8BC701B801AE01DE
:1003D000475E5F4F0E9475000E94FD03A096E6E015
:1003E0000C94012FA0E2B0E0E8EFF1E00C94E52ED0
:1003F00069837A838B839C832D833E834F835887C5
:10040000F9E0EF2EF12CEC0EFD1ECE010196B701A6
:100410000E94D2048E010F5E1F4FCE010596B801D7
:100420000E94D204C701B801AE01475E5F4F0E942F
:1004300075000E94FD03A096E6E00C94012FA0E257
:10044000B0E0E5E2F2E00C94D92E69837A838B83E5
:100450009C832D833E834F835887CE010196BE0136
:10046000675F7F4F0E94D204CE010596BE016F5E8A
:100470007F4F0E94D2049985923088F0898982301A
:10048000C8F0943019F4823051F404C0843029F457
:10049000923081F484E492E0C6C0923049F420E0C6
:1004A0009A858A89981321E02A87CE010996BBC0D4
:1004B000823049F420E09A858A89981321E02A8BBA
:1004C000CE014196B0C02D843E844F8458886D88FB
:1004D0007E888F88988CEE24FF248701AA24BB2471
:1004E000650140E050E060E070E0E0E0F0E0C10174
:1004F00081709070892BE9F0E60CF71C081D191D1E
:100500009A01AB012A0D3B1D4C1D5D1D80E090E062
:10051000A0E0B0E0E614F7040805190520F481E036
:1005200090E0A0E0B0E0BA01A901480F591F6A1F8E
:100530007B1FAA0CBB1CCC1CDD1C97FE08C081E0F5
:1005400090E0A0E0B0E0A82AB92ACA2ADB2A3196B6
:10055000E032F10549F0660C771C881C991C569412
:10056000479437942794C3CFFA85EA892B893C892D
:100570008B859C85280F391F2E5F3F4F17C0CA01FE
:1005800081709070892B61F016950795F794E79428
:1005900080E090E0A0E0B0E8E82AF92A0A2B1B2BC3
:1005A00076956795579547952F5F3F4F77FDE7CF36
:1005B0000CC0440F551F661F771F17FD4160EE0CDE
:1005C000FF1C001F111F21503040403090E05907A0
:1005D00090E0690790E4790760F32B8F3C8FDB0193
:1005E000CA018F779070A070B07080349105A1051A
:1005F000B10561F447FD0AC0E114F10401051105DC
:1006000029F0405C5F4F6F4F7F4F40781A8EFE1786
:1006100011F081E08A8F4D8F5E8F6F8F78A383E01A
:10062000898FCE0149960E94FD03A096E2E10C94C9
:10063000F52EA8E1B0E0EFE1F3E00C94E52E69833C
:100640007A838B839C832D833E834F83588789E0F5
:10065000E82EF12CEC0EFD1ECE010196B7010E9492
:10066000D2048E010F5E1F4FCE010596B8010E9485
:10067000D2048985823040F08989823028F0C70110
:10068000B8010E944A0501C08FEF6896E6E00C941D
:10069000012FA8E1B0E0EFE4F3E00C94E52E6983CC
:1006A0007A838B839C832D833E834F83588789E095
:1006B000E82EF12CEC0EFD1ECE010196B7010E9432
:1006C000D2048E010F5E1F4FCE010596B8010E9425
:1006D000D2048985823040F08989823028F0C701B0
:1006E000B8010E944A0501C08FEF6896E6E00C94BD
:1006F000012FA8E1B0E0EFE7F3E00C94E52E698369
:100700007A838B839C832D833E834F83588789E034
:10071000E82EF12CEC0EFD1ECE010196B7010E94D1
:10072000D2048E010F5E1F4FCE010596B8010E94C4
:10073000D2048985823040F08989823028F0C7014F
:10074000B8010E944A0501C081E06896E6E00C9479
:10075000012FACE0B0E0EFEAF3E00C94E92E6983FE
:100760007A838B839C83CE010196BE016B5F7F4FA2
:100770000E94D2048D81823061F1823050F1843048
:1007800021F48E81882351F12EC02F81388537FDC9
:1007900020C06E812F3131051CF06623F9F023C093
:1007A0008EE190E0821B930B29853A854B855C8511
:1007B00004C056954795379527958A95D2F76623B5
:1007C000B1F050954095309521953F4F4F4F5F4F79
:1007D0000EC020E030E040E050E009C02FEF3FEFD6
:1007E0004FEF5FE704C020E030E040E050E8B9019F
:1007F000CA012C96E2E00C94052FDF92EF92FF9253
:100800000F931F93FC01E480F58006811781D1804E
:100810008081823048F480E090E0A0E1B0E0E82AF6
:10082000F92A0A2B1B2BA5C0843009F49FC0823003
:1008300021F4EE24FF24870105C0E114F104010531
:10084000110519F4E0E0F0E096C0628173819FEF3A
:10085000623879070CF05BC022E83FEF261B370BAC
:100860002A3131052CF020E030E040E050E02AC091
:10087000B801A701022E04C0769567955795479554
:100880000A94D2F781E090E0A0E0B0E004C0880FC5
:10089000991FAA1FBB1F2A95D2F70197A109B10979
:1008A0008E219F21A023B1230097A105B10521F03E
:1008B00081E090E0A0E0B0E09A01AB01282B392B59
:1008C0004A2B5B2BDA01C9018F779070A070B07052
:1008D00080349105A105B10539F427FF09C0205CDA
:1008E0003F4F4F4F5F4F04C0215C3F4F4F4F5F4F13
:1008F000E0E0F0E02030A0E03A07A0E04A07A0E402
:100900005A0710F0E1E0F0E079018A0127C0603871
:10091000710564F5FB01E158FF4FD801C7018F77DE
:100920009070A070B07080349105A105B10539F4C4
:10093000E7FE0DC080E490E0A0E0B0E004C08FE3EB
:1009400090E0A0E0B0E0E80EF91E0A1F1B1F17FFA1
:1009500005C016950795F794E794319687E01695AC
:100960000795F794E7948A95D1F705C0EE24FF2404
:100970008701EFEFF0E06E2F679566276795902F60
:100980009F77D794DD24D7948E2F8695492F462BB9
:10099000582F5D29B701CA011F910F91FF90EF9069
:1009A000DF900895FC01DB01408151812281622F9B
:1009B0006F7770E0221F2227221F9381892F880FD3
:1009C000822B282F30E0991F9927991F11969C930D
:1009D000119721153105A9F54115510561057105DD
:1009E00011F482E037C082E89FEF13969C938E93B8
:1009F00012979A01AB0167E0220F331F441F551F66
:100A00006A95D1F783E08C930DC0220F331F441FEA
:100A1000551F12968D919C911397019713969C9355
:100A20008E931297203080E0380780E0480780E4FA
:100A3000580758F314962D933D934D935C93179755
:100A400008952F3F310579F4411551056105710570
:100A500019F484E08C93089564FF03C081E08C93C3
:100A600012C01C9210C02F57304013963C932E9307
:100A7000129783E08C9387E0440F551F661F771F02
:100A80008A95D1F7706414964D935D936D937C9322
:100A9000179708951F93DC01FB019C91923008F495
:100AA00047C08081823008F443C0943051F41196DD
:100AB0001C91843099F58181682F70E0611B710968
:100AC0003FC0843021F0923031F48230B9F181811D
:100AD000882389F12DC011961C9111978230F1F075
:100AE00081811817D9F412962D913C911397828128
:100AF00093818217930794F028173907BCF0149656
:100B00008D919D910D90BC91A02D248135814681C0
:100B10005781281739074A075B0718F4112341F05A
:100B20000AC082179307A407B50740F4112319F0F0
:100B300061E070E005C06FEF7FEF02C060E070E041
:100B4000CB011F910895DF93CF93CDB7DEB70E94FD
:100B5000EB170E94D6170E943A170E94200E80E0E1
:100B600063E041E00E945C1380E064E041E00E94A9
:100B70005C1380E067E040E00E945C1383E067E084
:100B800041E00E945C1382E065E041E00E945C135A
:100B900080E060E040E00E945C1382E062E041E0BF
:100BA0000E945C1382E063E041E00E945C1382E0FB
:100BB00064E041E00E945C1389E190E060E00E9403
:100BC0001A1E0E94421DCF91DF910895DF93CF93AB
:100BD000CDB7DEB70E944C1C80E690E00E94051C59
:100BE00082E060E00E94D41C81E790E00E94051C36
:100BF000CF91DF910895DF93CF93CDB7DEB76397A1
:100C00000FB6F894DEBF0FBECDBF9A8B898B6B8B6E
:100C1000188A8CC00E94991D8F878F858D3309F4A7
:100C20008AC08F858F3F81F08889282F30E089899D
:100C30009A89FC01E20FF31F8F85808388898F5F7B
:100C4000888B8AE20E94F51A80E090E0A6E9B3E47E
:100C50008B879C87AD87BE876B857C858D859E85C0
:100C600020E030E04AEF54E40E941F02DC01CB0197
:100C70008F839887A987BA876F81788589859A85B8
:100C800020E030E040E85FE30E94790388232CF401
:100C900081E090E09E838D833FC06F817885898558
:100CA0009A8520E03FEF4FE757E40E94190318169A
:100CB0004CF56B857C858D859E8520E030E040E29B
:100CC00051E40E941F02DC01CB01BC01CD010E9456
:100CD0004900DC01CB019E838D830FC088EC90E03E
:100CE0009C838B838B819C810197F1F79C838B8301
:100CF0008D819E8101979E838D838D819E8100973A
:100D000069F714C06F81788589859A850E944900AA
:100D1000DC01CB019E838D838D819E819A838983A3
:100D200089819A810197F1F79A83898398898B89C0
:100D3000981708F46FCF888963960FB6F894DEBFD2
:100D40000FBECDBFCF91DF910895DF93CF93CDB785
:100D5000DEB728970FB6F894DEBF0FBECDBF9A83DB
:100D600089837C836B834D831AC0E981FA819081EA
:100D7000EB81FC8180811F82981711F081E08F83C5
:100D800089819A8101969A8389838B819C810196BE
:100D90009C838B838F81882311F01E820FC08D81ED
:100DA00088878885882311F081E0888788859D81E0
:100DB00091509D838823C9F681E08E838E81289689
:100DC0000FB6F894DEBF0FBECDBFCF91DF9108956F
:100DD000DF93CF9300D0CDB7DEB7198215C08981DC
:100DE000282F30E0C901880F991F880F991F820FA3
:100DF000931F40960E94B51E8F3F19F489818A8304
:100E000008C089818F5F898389818A3040F38AE0B5
:100E10008A838A810F900F90CF91DF9108950F936D
:100E2000DF93CF93CDB7DEB729970FB6F894DEBF27
:100E30000FBECDBF8B837D836C834E8338872F831A
:100E400009871A8221C08B81282F30E0C901880FC1
:100E5000991F880F991F280F391F8A81882F90E0CA
:100E6000820F931F4096AC018A81282F30E08C813D
:100E70009D81FC01E20FF31F2081CA01622F0E94B5
:100E80001A1E8A818F5F8A839A818E819817D8F281
:100E9000198222C08B81282F30E0C901880F991F49
:100EA000880F991F280F391F8981882F90E0820FA2
:100EB000931F805C9F4FAC018981282F30E08F8188
:100EC0009885FC01E20FF31F2081CA01622F0E9466
:100ED0001A1E89818F5F8983998189859817D0F23D
:100EE00029960FB6F894DEBF0FBECDBFCF91DF912C
:100EF0000F9108950F93DF93CF93CDB7DEB7A997E6
:100F00000FB6F894DEBF0FBECDBF85E0FE01B096F0
:100F1000DF01982F1D929A95E9F785E0FE01B596BD
:100F2000DF01982F1D929A95E9F70E944C1C8EE7DD
:100F300090E00E94051C80E090E8ABE3B5E4898F67
:100F40009A8FAB8FBC8F698D7A8D8B8D9C8D20E0B5
:100F500030E04AEF54E40E941F02DC01CB018D8B8C
:100F60009E8BAF8BB88F6D897E898F89988D20E09D
:100F700030E040E85FE30E94790388232CF481E0AD
:100F800090E09C8B8B8B3FC06D897E898F89988D7B
:100F900020E03FEF4FE757E40E94190318164CF585
:100FA000698D7A8D8B8D9C8D20E030E040E251E49C
:100FB0000E941F02DC01CB01BC01CD010E9449004F
:100FC000DC01CB019C8B8B8B0FC088EC90E09A8B63
:100FD000898B89899A890197F1F79A8B898B8B89FB
:100FE0009C8901979C8B8B8B8B899C89009769F7D7
:100FF00014C06D897E898F89988D0E944900DC011B
:10100000CB019C8B8B8B8B899C89988B8F878F8551
:1010100098890197F1F7988B8F870E944C1C85E87F
:1010200090E00E94051C82E060E00E94D41CCE018A
:10103000809665E00E94FB058F8F0E944C1C86E91C
:1010400090E00E94051C82E060E00E94D41CCE016A
:10105000859665E00E94FB058E8F0E94E8068D8FC5
:101060008D8D8A3098F49E01205E3F4FFE01B5962B
:101070008D8DB9014F8D9F010E8D0E940F070E942B
:101080004C1C87EA90E00E94051C06C00E944C1C84
:1010900087EB90E00E94051C80E090E0AAEFB4E4AA
:1010A0008B879C87AD87BE876B857C858D859E856C
:1010B00020E030E04AEF54E40E941F02DC01CB0143
:1010C0008F839887A987BA876F81788589859A8564
:1010D00020E030E040E85FE30E94790388232CF4AD
:1010E00081E090E09E838D833FC06F817885898504
:1010F0009A8520E03FEF4FE757E40E941903181646
:101100004CF56B857C858D859E8520E030E040E246
:1011100051E40E941F02DC01CB01BC01CD010E9401
:101120004900DC01CB019E838D830FC088EC90E0E9
:101130009C838B838B819C810197F1F79C838B83AC
:101140008D819E8101979E838D838D819E810097E5
:1011500069F714C06F81788589859A850E94490056
:10116000DC01CB019E838D838D819E819A8389834F
:1011700089819A810197F1F79A838983A9960FB69D
:10118000F894DEBF0FBECDBFCF91DF910F910895D0
:101190000F931F93DF93CF93CDB7DEB764970FB64E
:1011A000F894DEBF0FBECDBF9F878E87688B5A8BAA
:1011B000498B2B8B85E0FE013496DF01982F1D9221
:1011C0009A95E9F785E0FE013996DF01982F1D9287
:1011D0009A95E9F71B8265C01A821FC08A81082F81
:1011E00010E08B81282F30E0C901880F991F880FEC
:1011F000991F280F391F8A81882F90E0820F931F33
:1012000040960E94B51E282FCE010496FC01E00FE7
:10121000F11F20838A818F5F8A838A818530F0F273
:10122000198220C08981082F10E08B81282F30E09F
:10123000C901880F991F880F991F280F391F8981AD
:10124000882F90E0820F931F805C9F4F0E94B51EF5
:10125000282FCE010996FC01E00FF11F2083898120
:101260008F5F898389818530E8F28E859F859E0115
:101270002C5F3F4FB90148890E94A506882371F071
:1012800089899A899E01275F3F4FB9014B890E9446
:10129000A506882319F0A1E0AC8B08C08B818F5F75
:1012A0008B838B818A3008F497CF1C8A8C89649653
:1012B0000FB6F894DEBF0FBECDBFCF91DF911F9167
:1012C0000F910895DF93CF93CDB7DEB7E6970FB6B2
:1012D000F894DEBF0FBECDBF85E0FE01BD96DF01F5
:1012E000982F1D929A95E9F785E0FE01F296DF01AD
:1012F000982F1D929A95E9F70E944C1C89EC90E07A
:101300000E94051C80E090E8ABE3B5E48FA398A7AA
:10131000A9A7BAA76FA178A589A59AA520E030E072
:101320004AEF54E40E941F02DC01CB018BA39CA373
:10133000ADA3BEA36BA17CA18DA19EA120E030E056
:1013400040E85FE30E94790388232CF481E090E079
:101350009AA389A33FC06BA17CA18DA19EA120E08F
:101360003FEF4FE757E40E94190318164CF56FA1A1
:1013700078A589A59AA520E030E040E251E40E94DA
:101380001F02DC01CB01BC01CD010E944900DC0140
:10139000CB019AA389A30FC088EC90E098A38F8F0C
:1013A0008F8D98A10197F1F798A38F8F89A19AA1AA
:1013B00001979AA389A389A19AA1009769F714C0FC
:1013C0006BA17CA18DA19EA10E944900DC01CB01F3
:1013D0009AA389A389A19AA19E8F8D8F8D8D9E8DB1
:1013E0000197F1F79E8F8D8F0E944C1C8FEC90E03F
:1013F0000E94051C82E060E00E94D41CCE018D9604
:1014000065E00E94FB058CA70E944C1C8FED90E0CC
:101410000E94051C82E060E00E94D41CCE01C296AE
:1014200065E00E94FB058BA70E944C1C8FEE90E0AC
:101430000E94051CCE018D969E012E5C3F4F6CA52F
:10144000A9012BA50E94C808882309F47EC00E9428
:101450004C1C8BEF90E00E94051C80E090E0AAE716
:10146000B4E4898F9A8FAB8FBC8F698D7A8D8B8D09
:101470009C8D20E030E04AEF54E40E941F02DC0122
:10148000CB018D8B9E8BAF8BB88F6D897E898F89B9
:10149000988D20E030E040E85FE30E9479038823E4
:1014A0002CF481E090E09C8B8B8B3FC06D897E8912
:1014B0008F89988D20E03FEF4FE757E40E94190392
:1014C00018164CF5698D7A8D8B8D9C8D20E030E05F
:1014D00040E251E40E941F02DC01CB01BC01CD01BE
:1014E0000E944900DC01CB019C8B8B8B0FC088ECE8
:1014F00090E09A8B898B89899A890197F1F79A8B69
:10150000898B8B899C8901979C8B8B8B8B899C8980
:10151000009769F714C06D897E898F89988D0E9424
:101520004900DC01CB019C8B8B8B8B899C89988B30
:101530008F878F8598890197F1F7988B8F8789E13D
:1015400090E060E00E941A1E8AC00E944C1C89E054
:1015500091E00E94051C89E190E00E94B51E8093F5
:101560006A0280916A028F5F80936A0220916A0208
:1015700089E190E0622F0E941A1E80E090E0AAE7C5
:10158000B4E48B879C87AD87BE876B857C858D8512
:101590009E8520E030E04AEF54E40E941F02DC0107
:1015A000CB018F839887A987BA876F8178858985D2
:1015B0009A8520E030E040E85FE30E9479038823C9
:1015C0002CF481E090E09E838D833FC06F8178850D
:1015D00089859A8520E03FEF4FE757E40E94190381
:1015E00018164CF56B857C858D859E8520E030E056
:1015F00040E251E40E941F02DC01CB01BC01CD019D
:101600000E944900DC01CB019E838D830FC088ECD2
:1016100090E09C838B838B819C810197F1F79C8365
:101620008B838D819E8101979E838D838D819E8189
:10163000009769F714C06F81788589859A850E9423
:101640004900DC01CB019E838D838D819E819A832D
:10165000898389819A810197F1F79A838983E69634
:101660000FB6F894DEBF0FBECDBFCF91DF910895C6
:10167000DF93CF9300D0CDB7DEB783E390E09A83BA
:101680008983E9E2F0E089818083E0E4F0E0898108
:101690009A81892F99278083AAE2B0E0EAE2F0E0FC
:1016A000808188608C93AAE2B0E0EAE2F0E0808179
:1016B00080618C93A0E4B0E0E0E4F0E08081806899
:1016C0008C93A0E4B0E0E0E4F0E0808182608C9351
:1016D000A0E4B0E0E0E4F0E0808184608C93AAE2D2
:1016E000B0E0EAE2F0E080818B7F8C930F900F9066
:1016F000CF91DF910895DF93CF930F92CDB7DEB7EF
:101700008983EBE2F0E08081829586958770882F4F
:1017100090E0817090700097A1F3ECE2F0E0898195
:1017200080830F90CF91DF910895DF93CF93CDB752
:10173000DEB7EBE2F0E080818823DCF7ECE2F0E05A
:101740008081CF91DF910895DF93CF9300D0CDB703
:10175000DEB79A8389830AC0E981FA8180810E9479
:101760007B0B89819A8101969A838983E981FA8129
:101770008081882389F78AE00E947B0B0F900F906D
:10178000CF91DF910895DF93CF93CDB7DEB7A3E577
:10179000B0E0E3E5F0E080818F7B8C93A3E5B0E0DF
:1017A000E3E5F0E0808188608C930E941C0C80E06F
:1017B0000E94420CCF91DF910895DF93CF93CDB774
:1017C000DEB7A3E5B0E0E3E5F0E0808184608C93D0
:1017D000CF91DF910895DF93CF93CDB7DEB7A3E527
:1017E000B0E0E3E5F0E0808180618C93A3E5B0E0B8
:1017F000E3E5F0E0808180628C93CF91DF910895E2
:10180000DF93CF93CDB7DEB7A9E5B0E0E9E5F0E02F
:10181000808181608C93CF91DF910895DF93CF9386
:10182000CDB7DEB7A9E5B0E0E9E5F0E080818E7FD5
:101830008C93CF91DF910895DF93CF93CDB7DEB72F
:10184000A9E5B0E0E9E5F0E0808182608C93CF917A
:10185000DF910895DF93CF93CDB7DEB7A9E5B0E070
:10186000E9E5F0E080818D7F8C93CF91DF91089541
:10187000DF93CF93CDB7DEB7E3E5F0E01082CF91F1
:10188000DF910895DF93CF930F92CDB7DEB78983B1
:10189000E2E5F0E0898180830F90CF91DF91089598
:1018A000DF93CF930F92CDB7DEB78983ECE5F0E0FD
:1018B000898180830F90CF91DF910895DF93CF933B
:1018C000CDB7DEB7AFE4B0E0EFE4F0E080818E7F2B
:1018D0008C93AFE4B0E0EFE4F0E0808182608C9321
:1018E000AEE4B0E0EEE4F0E0808188608C93AEE49A
:1018F000B0E0EEE4F0E0808180618C93CF91DF91E5
:101900000895DF93CF9300D00F92CDB7DEB78983D0
:101910008981282F30E03B832A838A819B81823012
:101920009105C1F02A813B812330310511F18A8173
:101930009B81009761F5AFE4B0E0EFE4F0E08081D7
:101940008F7B8C93AFE4B0E0EFE4F0E080818F77A1
:101950008C931DC0AFE4B0E0EFE4F0E080818F7BBA
:101960008C93AFE4B0E0EFE4F0E0808180688C938A
:101970000EC0AFE4B0E0EFE4F0E0808180648C93CF
:10198000AFE4B0E0EFE4F0E0808180688C930F90EA
:101990000F900F90CF91DF910895DF93CF9300D0F8
:1019A0000F92CDB7DEB789838981282F30E03B8342
:1019B0002A838A819B8182309105C1F02A813B81F3
:1019C0002330310511F18A819B81009761F5AFE4E5
:1019D000B0E0EFE4F0E080818F7E8C93AFE4B0E084
:1019E000EFE4F0E080818F7D8C931DC0AFE4B0E028
:1019F000EFE4F0E080818F7E8C93AFE4B0E0EFE421
:101A0000F0E0808180628C930EC0AFE4B0E0EFE440
:101A1000F0E0808180618C93AFE4B0E0EFE4F0E02F
:101A2000808180628C930F900F900F90CF91DF9107
:101A30000895DF93CF93CDB7DEB7AEE4B0E0EEE428
:101A4000F0E08081887F8C93AEE4B0E0EEE4F0E0DB
:101A5000808182608C93CF91DF910895DF93CF9343
:101A6000CDB7DEB7AEE4B0E0EEE4F0E080818E7F8B
:101A70008C93AEE4B0E0EEE4F0E080818D7F8C9357
:101A8000AEE4B0E0EEE4F0E080818B7F8C93CF9108
:101A9000DF910895DF93CF930F92CDB7DEB789839F
:101AA000ECE4F0E08981882F90E0918380830F90AF
:101AB000CF91DF910895DF93CF9300D0CDB7DEB7FC
:101AC0009A838983EAE4F0E089819A819183808313
:101AD0000F900F90CF91DF910895DF93CF9300D0B7
:101AE000CDB7DEB79A838983E8E4F0E089819A81F3
:101AF000918380830F900F90CF91DF910895DF93B2
:101B0000CF9300D0CDB7DEB79A838983E6E4F0E0C7
:101B100089819A81918380830F900F90CF91DF917B
:101B20000895DF93CF930F92CDB7DEB78983898174
:101B3000882341F4AEE4B0E0EEE4F0E0808180641C
:101B40008C930AC08981882339F4AEE4B0E0EEE4D6
:101B5000F0E080818F7B8C930F90CF91DF9108957F
:101B6000DF93CF93CDB7DEB7A9E5B0E0E9E5F0E0CC
:101B7000808180628C93CF91DF910895DF93CF9322
:101B8000CDB7DEB7A9E5B0E0E9E5F0E080818F7D73
:101B90008C93CF91DF910895DF93CF93CDB7DEB7CC
:101BA000A9E5B0E0E9E5F0E0808184608C93CF9115
:101BB000DF910895DF93CF93CDB7DEB7A9E5B0E00D
:101BC000E9E5F0E080818B7F8C93CF91DF910895E0
:101BD000DF93CF93CDB7DEB7A9E5B0E0E9E5F0E05C
:101BE000808180618C93CF91DF910895DF93CF93B3
:101BF000CDB7DEB7A9E5B0E0E9E5F0E080818F7E02
:101C00008C93CF91DF910895DF93CF93CDB7DEB75B
:101C1000A9E5B0E0E9E5F0E0808188608C93CF91A0
:101C2000DF910895DF93CF93CDB7DEB7A9E5B0E09C
:101C3000E9E5F0E08081877F8C93CF91DF91089573
:101C4000DF93CF93CDB7DEB783E00E94790E82E0B9
:101C50000E94E00E80E00E945D0E80E00E946B0E0C
:101C60000E94550F0E94710FCF91DF910895DF936D
:101C7000CF93CDB7DEB784E00E947F0FCF91DF9185
:101C80000895DF93CF93CDB7DEB7A5E4B0E0E5E4E8
:101C9000F0E080818E7F8C93A5E4B0E0E5E4F0E095
:101CA00080818D7F8C93A5E4B0E0E5E4F0E0808155
:101CB0008B7F8C93CF91DF910895DF93CF930F9219
:101CC000CDB7DEB78983E4E4F0E0898180830F90AB
:101CD000CF91DF910895DF93CF930F92CDB7DEB709
:101CE0008983E3E4F0E0898180830F90CF91DF91D5
:101CF0000895DF93CF9300D00F92CDB7DEB78983DD
:101D00008981282F30E03B832A838A819B8181301F
:101D1000910521F12A813B81223031052CF48A8101
:101D20009B81009761F046C02A813B8122303105BA
:101D300021F18A819B818330910571F13BC0A5E43B
:101D4000B0E0E5E4F0E080818F7B8C93A5E4B0E027
:101D5000E5E4F0E08081877F8C932CC0A5E4B0E0BF
:101D6000E5E4F0E0808180648C93A5E4B0E0E5E4F4
:101D7000F0E08081877F8C931DC0A5E4B0E0E5E4AE
:101D8000F0E080818F7B8C93A5E4B0E0E5E4F0E0A7
:101D9000808188608C930EC0A5E4B0E0E5E4F0E0BB
:101DA000808180648C93A5E4B0E0E5E4F0E080817C
:101DB00088608C930F900F900F90CF91DF910895D2
:101DC000DF93CF9300D00F92CDB7DEB7898389819F
:101DD000282F30E03B832A838A819B8181309105C3
:101DE00021F12A813B81223031052CF48A819B81AB
:101DF000009761F046C02A813B812230310521F1F4
:101E00008A819B818330910571F13BC0A5E4B0E0EC
:101E1000E5E4F0E080818F7E8C93A5E4B0E0E5E41A
:101E2000F0E080818F7D8C932CC0A5E4B0E0E5E4E8
:101E3000F0E0808180618C93A5E4B0E0E5E4F0E01F
:101E400080818F7D8C931DC0A5E4B0E0E5E4F0E0D7
:101E500080818F7E8C93A5E4B0E0E5E4F0E08081A2
:101E600080628C930EC0A5E4B0E0E5E4F0E08081F0
:101E700080618C93A5E4B0E0E5E4F0E080818062CD
:101E80008C930F900F900F90CF91DF910895DF9377
:101E9000CF93CDB7DEB7A9E5B0E0E9E5F0E080810A
:101EA00080648C93CF91DF910895DF93CF93CDB76A
:101EB000DEB7A9E5B0E0E9E5F0E080818F7B8C93A7
:101EC000CF91DF910895DF93CF93CDB7DEB7A9E52A
:101ED000B0E0E9E5F0E0808180688C93CF91DF91FC
:101EE0000895DF93CF93CDB7DEB7A9E5B0E0E9E57C
:101EF000F0E080818F778C93CF91DF910895DF930D
:101F0000CF9300D00F92CDB7DEB789838981282F78
:101F100030E03B832A838A819B818430910509F4D8
:101F20006BC02A813B81253031058CF48A819B81ED
:101F300082309105A9F12A813B81233031050CF0D3
:101F400045C08A819B8181309105A1F0ACC02A8176
:101F50003B812630310509F47BC08A819B81863024
:101F600091050CF45FC02A813B812730310509F4CB
:101F700085C099C0A5E4B0E0E5E4F0E0808181602F
:101F80008C93A5E4B0E0E5E4F0E080818D7F8C9354
:101F9000A5E4B0E0E5E4F0E080818B7F8C9383C022
:101FA000A5E4B0E0E5E4F0E080818E7F8C93A5E4C9
:101FB000B0E0E5E4F0E0808182608C93A5E4B0E0DD
:101FC000E5E4F0E080818B7F8C936DC0A5E4B0E008
:101FD000E5E4F0E0808181608C93A5E4B0E0E5E485
:101FE000F0E0808182608C93A5E4B0E0E5E4F0E06D
:101FF00080818B7F8C9357C0A5E4B0E0E5E4F0E0EE
:1020000080818E7F8C93A5E4B0E0E5E4F0E08081F0
:102010008D7F8C93A5E4B0E0E5E4F0E080818460FE
:102020008C9341C0A5E4B0E0E5E4F0E080818160FC
:102030008C93A5E4B0E0E5E4F0E080818D7F8C93A3
:10204000A5E4B0E0E5E4F0E0808184608C932BC0EF
:10205000A5E4B0E0E5E4F0E080818E7F8C93A5E418
:10206000B0E0E5E4F0E0808182608C93A5E4B0E02C
:10207000E5E4F0E0808184608C9315C0A5E4B0E0D5
:10208000E5E4F0E0808181608C93A5E4B0E0E5E4D4
:10209000F0E0808182608C93A5E4B0E0E5E4F0E0BC
:1020A000808184608C930F900F900F90CF91DF917F
:1020B0000895DF93CF930F92CDB7DEB78983E0E227
:1020C000F0E082E08083A1E2B0E0E1E2F0E0808134
:1020D0008E7F8C93A1E2B0E0E1E2F0E080818D7F21
:1020E0008C938981882329F0E2E2F0E08981880FCE
:1020F0008083A6E5B0E0E6E5F0E0808184608C9323
:102100000F90CF91DF910895DF93CF930F92CDB7CA
:10211000DEB78983E2E2F0E08981880F8083A6E55B
:10212000B0E0E6E5F0E0808184608C930F90CF9181
:10213000DF910895DF93CF930F92CDB7DEB7198269
:10214000A6E5B0E0E6E5F0E0808180628C93A6E54C
:10215000B0E0E6E5F0E0808180688C93E6E5F0E0B1
:1021600080818823DCF7E1E2F0E08081882F90E035
:10217000887F90708830910511F081E08983898192
:102180000F90CF91DF910895DF93CF930F92CDB74A
:10219000DEB71982A6E5B0E0E6E5F0E08081806276
:1021A0008C93A6E5B0E0E6E5F0E0808180688C9352
:1021B000E6E5F0E080818823DCF7E1E2F0E0808171
:1021C000882F90E0887F90708031910511F082E037
:1021D000898389810F90CF91DF910895DF93CF9309
:1021E00000D0CDB7DEB78A831982E3E2F0E08A81BE
:1021F000880F8083A3E2B0E0E3E2F0E080818E7F8D
:102200008C93A6E5B0E0E6E5F0E080818F7D8C93CD
:10221000A6E5B0E0E6E5F0E0808180688C93E6E535
:10222000F0E080818823DCF7E1E2F0E08081882F14
:1022300090E0887F90708831910511F083E0898368
:1022400089810F900F90CF91DF910895DF93CF9305
:1022500000D0CDB7DEB78A831982E3E2F0E08A814D
:10226000880F8083A3E2B0E0E3E2F0E08081816048
:102270008C93A6E5B0E0E6E5F0E080818F7D8C935D
:10228000A6E5B0E0E6E5F0E0808180688C93E6E5C5
:10229000F0E080818823DCF7E1E2F0E08081882FA4
:1022A00090E0887F90708034910511F084E08983FC
:1022B00089810F900F90CF91DF910895DF93CF9395
:1022C00000D0CDB7DEB78A831982E3E2F0E08A81DD
:1022D0008083A6E5B0E0E6E5F0E0808180688C933D
:1022E000E6E5F0E080818823DCF7E1E2F0E0808140
:1022F000882F90E0887F90708832910511F085E0FA
:10230000898389810F900F90CF91DF910895DF939A
:10231000CF9300D00F92CDB7DEB79B838A8319820B
:10232000A6E5B0E0E6E5F0E080818F7B8C93A6E542
:10233000B0E0E6E5F0E0808180688C93E6E5F0E0CF
:1023400080818823DCF7E1E2F0E08081882F90E053
:10235000887F90708835910519F086E0898306C0E2
:10236000E3E2F0E08081EA81FB81808389810F9044
:102370000F900F90CF91DF910895DF93CF93CDB75A
:10238000DEB7A6E5B0E0E6E5F0E0808180618C9301
:10239000A6E5B0E0E6E5F0E0808180688C93CF911F
:1023A000DF910895DF93CF93CDB7DEB7AFE5B0E00F
:1023B000EFE5F0E0808180688C93CF91DF91089504
:1023C000DF93CF93CDB7DEB7AFE5B0E0EFE5F0E058
:1023D00080818F778C93CF91DF910895DF93CF9396
:1023E00000D00F92CDB7DEB789838981282F30E0E6
:1023F0003B832A838A819B818130910589F02A81E0
:102400003B8122303105A1F08A819B810097B9F48C
:10241000ABE5B0E0EBE5F0E0808180648C930FC029
:10242000ABE5B0E0EBE5F0E0808180688C9307C01D
:10243000ABE5B0E0EBE5F0E0808180628C930F903B
:102440000F900F90CF91DF910895DF93CF9300D03D
:102450000F92CDB7DEB789838981282F30E03B8387
:102460002A838A819B818130910589F02A813B8171
:1024700022303105A1F08A819B810097B9F4ABE548
:10248000B0E0EBE5F0E080818F7B8C930FC0ABE593
:10249000B0E0EBE5F0E080818F778C9307C0ABE58F
:1024A000B0E0EBE5F0E080818F7D8C930F900F9092
:1024B0000F90CF91DF910895DF93CF93CDB7DEB723
:1024C0002A970FB6F894DEBF0FBECDBF89836A830B
:1024D0008981282F30E03A87298789859A8581303C
:1024E000910509F466C029853A852230310509F441
:1024F000BBC089859A85009709F0D5C08A81282FAD
:1025000030E038872F838F8198858130910521F1C4
:102510002F813885223031052CF48F8198850097E2
:1025200061F0C1C02F8138852230310521F18F81C2
:1025300098858330910571F1B6C0A5E5B0E0E5E579
:10254000F0E080818E7F8C93A5E5B0E0E5E5F0E0DA
:1025500080818D7F8C93A7C0A5E5B0E0E5E5F0E034
:10256000808181608C93A5E5B0E0E5E5F0E08081B5
:102570008D7F8C9398C0A5E5B0E0E5E5F0E0808123
:102580008E7F8C93A5E5B0E0E5E5F0E08081826088
:102590008C9389C0A5E5B0E0E5E5F0E0808181603D
:1025A0008C93A5E5B0E0E5E5F0E0808182608C9356
:1025B0007AC08A81282F30E03E832D838D819E81D1
:1025C0008130910521F12D813E81223031052CF49D
:1025D0008D819E81009761F066C02D813E81223001
:1025E000310521F18D819E818330910571F15BC0B0
:1025F000A5E5B0E0E5E5F0E080818B7F8C93A5E573
:10260000B0E0E5E5F0E08081877F8C934CC0A5E5E4
:10261000B0E0E5E5F0E0808184608C93A5E5B0E072
:10262000E5E5F0E08081877F8C933DC0A5E5B0E0D3
:10263000E5E5F0E080818B7F8C93A5E5B0E0E5E5F2
:10264000F0E0808188608C932EC0A5E5B0E0E5E5E0
:10265000F0E0808184608C93A5E5B0E0E5E5F0E0F2
:10266000808188608C931FC08A81282F30E03C8352
:102670002B838B819C818230910531F02B813C81B1
:102680002330310549F00FC0A4E5B0E0E4E5F0E007
:1026900080818F7B8C9307C0A4E5B0E0E4E5F0E097
:1026A000808180648C932A960FB6F894DEBF0FBEAB
:1026B000CDBFCF91DF910895DF93CF93CDB7DEB734
:1026C00029970FB6F894DEBF0FBECDBF89836A830A
:1026D0004B838B81282F30E039872887888599851F
:1026E000009709F475C0288539852130310509F036
:1026F000E2C08981282F30E03F832E838E819F8125
:102700008130910549F12E813F81223031052CF431
:102710008E819F81009761F0CEC02E813F81223053
:10272000310571F18E819F8183309105E9F1C3C03C
:10273000AAE3B0E0EAE3F0E08081482F8A81282F05
:1027400030E081E090E0022E02C0880F991F0A94C9
:10275000E2F7842B8C93AFC0A7E3B0E0E7E3F0E0AF
:102760008081482F8A81282F30E081E090E0022E7E
:1027700002C0880F991F0A94E2F7842B8C939BC0A8
:10278000A4E3B0E0E4E3F0E08081482F8A81282FC1
:1027900030E081E090E0022E02C0880F991F0A9479
:1027A000E2F7842B8C9387C0A1E3B0E0E1E3F0E093
:1027B0008081482F8A81282F30E081E090E0022E2E
:1027C00002C0880F991F0A94E2F7842B8C9373C080
:1027D0008981282F30E03D832C838C819D8181303D
:1027E000910559F12C813D81223031052CF48C81E9
:1027F0009D81009769F05FC02C813D8122303105B9
:1028000089F18C819D818330910509F440C053C0CA
:10281000AAE3B0E0EAE3F0E08081482F8A81282F24
:1028200030E081E090E0022E02C0880F991F0A94E8
:10283000E2F7809584238C933EC0A7E3B0E0E7E302
:10284000F0E08081482F8A81282F30E081E090E0FD
:10285000022E02C0880F991F0A94E2F78095842304
:102860008C9329C0A4E3B0E0E4E3F0E08081482F3A
:102870008A81282F30E081E090E0022E02C0880F8C
:10288000991F0A94E2F7809584238C9314C0A1E3E6
:10289000B0E0E1E3F0E08081482F8A81282F30E02A
:1028A00081E090E0022E02C0880F991F0A94E2F79F
:1028B000809584238C9329960FB6F894DEBF0FBEC3
:1028C000CDBFCF91DF910895DF93CF93CDB7DEB722
:1028D00029970FB6F894DEBF0FBECDBF89836A83F8
:1028E0004B838B81282F30E039872887888599850D
:1028F000009709F475C0288539852130310509F024
:10290000E2C08981282F30E03F832E838E819F8112
:102910008130910549F12E813F81223031052CF41F
:102920008E819F81009761F0CEC02E813F81223041
:10293000310571F18E819F8183309105E9F1C3C02A
:10294000ABE3B0E0EBE3F0E08081482F8A81282FF1
:1029500030E081E090E0022E02C0880F991F0A94B7
:10296000E2F7842B8C93AFC0A8E3B0E0E8E3F0E09B
:102970008081482F8A81282F30E081E090E0022E6C
:1029800002C0880F991F0A94E2F7842B8C939BC096
:10299000A5E3B0E0E5E3F0E08081482F8A81282FAD
:1029A00030E081E090E0022E02C0880F991F0A9467
:1029B000E2F7842B8C9387C0A2E3B0E0E2E3F0E07F
:1029C0008081482F8A81282F30E081E090E0022E1C
:1029D00002C0880F991F0A94E2F7842B8C9373C06E
:1029E0008981282F30E03D832C838C819D8181302B
:1029F000910559F12C813D81223031052CF48C81D7
:102A00009D81009769F05FC02C813D8122303105A6
:102A100089F18C819D818330910509F440C053C0B8
:102A2000ABE3B0E0EBE3F0E08081482F8A81282F10
:102A300030E081E090E0022E02C0880F991F0A94D6
:102A4000E2F7809584238C933EC0A8E3B0E0E8E3EE
:102A5000F0E08081482F8A81282F30E081E090E0EB
:102A6000022E02C0880F991F0A94E2F780958423F2
:102A70008C9329C0A5E3B0E0E5E3F0E08081482F26
:102A80008A81282F30E081E090E0022E02C0880F7A
:102A9000991F0A94E2F7809584238C9314C0A2E3D3
:102AA000B0E0E2E3F0E08081482F8A81282F30E017
:102AB00081E090E0022E02C0880F991F0A94E2F78D
:102AC000809584238C9329960FB6F894DEBF0FBEB1
:102AD000CDBFCF91DF910895DF93CF9300D000D089
:102AE000CDB7DEB789836A838981282F30E03C83A4
:102AF0002B838B819C818130910549F12B813C8115
:102B0000223031052CF48B819C81009761F05AC0F2
:102B10002B813C812230310571F18B819C81833086
:102B20009105E9F14FC0ABE3B0E0EBE3F0E0808169
:102B3000482F8A81282F30E081E090E0022E02C0E9
:102B4000880F991F0A94E2F784278C933BC0A8E36F
:102B5000B0E0E8E3F0E08081482F8A81282F30E060
:102B600081E090E0022E02C0880F991F0A94E2F7DC
:102B700084278C9327C0A5E3B0E0E5E3F0E08081F3
:102B8000482F8A81282F30E081E090E0022E02C099
:102B9000880F991F0A94E2F784278C9313C0A2E34D
:102BA000B0E0E2E3F0E08081482F8A81282F30E016
:102BB00081E090E0022E02C0880F991F0A94E2F78C
:102BC00084278C930F900F900F900F90CF91DF91EF
:102BD0000895DF93CF93CDB7DEB728970FB6F8945B
:102BE000DEBF0FBECDBF89836A838A81282F30E084
:102BF00038872F838F8198850097C9F12F81388579
:102C00002130310509F061C08981282F30E03E83F1
:102C10002D838D819E8181309105D1F02D813E8162
:102C2000223031052CF48D819E81009761F04DC0DA
:102C30002D813E812230310581F08D819E8183304E
:102C4000910581F042C0EAE3F0E08FEF80833DC060
:102C5000E7E3F0E08FEF808338C0E4E3F0E08FEF4C
:102C6000808333C0E1E3F0E08FEF80832EC0898161
:102C7000282F30E03C832B838B819C818130910510
:102C8000C9F02B813C81223031052CF48B819C8151
:102C9000009761F01AC02B813C812230310571F020
:102CA0008B819C818330910569F00FC0EAE3F0E0ED
:102CB00010820BC0E7E3F0E0108207C0E4E3F0E02D
:102CC000108203C0E1E3F0E0108228960FB6F8947A
:102CD000DEBF0FBECDBFCF91DF910895DF93CF93BD
:102CE00000D000D0CDB7DEB789836A838981282FD1
:102CF00030E03C832B838B819C8181309105D1F026
:102D00002B813C81223031052CF48B819C810097F2
:102D100061F01EC02B813C812230310581F08B8116
:102D20009C818330910581F013C0EBE3F0E08A8150
:102D300080830EC0E8E3F0E08A81808309C0E5E388
:102D4000F0E08A81808304C0E2E3F0E08A8180833E
:102D50000F900F900F900F90CF91DF910895DF9318
:102D6000CF9300D000D00F92CDB7DEB78A836B83AC
:102D700019828A81282F30E03D832C834C815D812C
:102D80004130510541F18C819D818230910534F4AF
:102D90002C813D812115310561F052C04C815D814E
:102DA0004230510551F18C819D8183309105B9F1FB
:102DB00047C0E9E3F0E08081282F30E08B81882F45
:102DC00090E0A90102C0559547958A95E2F7CA019E
:102DD0008170898335C0E6E3F0E08081282F30E000
:102DE0008B81882F90E0A90102C0559547958A955F
:102DF000E2F7CA018170898323C0E3E3F0E08081B8
:102E0000282F30E08B81882F90E0A90102C05595D2
:102E100047958A95E2F7CA018170898311C0E0E382
:102E2000F0E08081282F30E08B81882F90E0A9018D
:102E300002C0559547958A95E2F7CA01817089834A
:102E400089810F900F900F900F900F90CF91DF918D
:102E50000895DF93CF9300D0CDB7DEB789836A831F
:102E600089816A8141E00E9464140F900F90CF9194
:102E7000DF910895DF93CF93CDB7DEB7A7E2B0E03F
:102E8000E7E2F0E080818F738C93A7E2B0E0E7E2A5
:102E9000F0E08081806C8C93A6E2B0E0E6E2F0E0A6
:102EA0008081887F8C93A6E2B0E0E6E2F0E080814A
:102EB00087608C93A7E2B0E0E7E2F0E080818F7D4D
:102EC0008C93A6E2B0E0E6E2F0E0808180688C932B
:102ED000CF91DF910895DF93CF9300D00F92CDB7BC
:102EE000DEB78B83A7E2B0E0E7E2F0E08081807E8E
:102EF0008C93A7E2B0E0E7E2F0E090818B81892B30
:102F00008C93A6E2B0E0E6E2F0E0808180648C93EE
:102F1000E6E2F0E0808182958F70882F90E08170EA
:102F200090700097A9F3A6E2B0E0E6E2F0E08081BD
:102F300080618C93E4E2F0E0808191819A838983BF
:102F400089819A810F900F900F90CF91DF91089512
:102F5000DF93CF9300D00F92CDB7DEB78B838B81F9
:102F6000882F90E0A0E0B0E028EE33E040E050E0B1
:102F7000BC01CD010E94842EDC01CB0124EB30E0AA
:102F800040E050E0BC01CD010E94B72EDA01C9013A
:102F900088519C4F9A83898389819A810E945B0D15
:102FA0000F900F900F90CF91DF910895DF93CF9303
:102FB000CDB7DEB783E065E041E00E945C130E947C
:102FC0005E0C80E29EE40E947F0D82E00E94810CF4
:102FD000CF91DF910895DF93CF93CDB7DEB7E89718
:102FE0000FB6F894DEBF0FBECDBF81E061E00E9456
:102FF000E91583E062E041E00E945C1383E063E056
:1030000041E00E945C1383E064E041E00E945C13B5
:1030100080E090E0A0EFB1E48DAB9EABAFABB8AF7A
:103020006DA97EA98FA998AD20E030E04AEF54E465
:103030000E941F02DC01CB0189AB9AABABABBCABEE
:1030400069A97AA98BA99CA920E030E040E85FE358
:103050000E94790388232CF481E090E098AB8FA73D
:103060003FC069A97AA98BA99CA920E03FEF4FE74F
:1030700057E40E94190318164CF56DA97EA98FA973
:1030800098AD20E030E040E251E40E941F02DC01F4
:10309000CB01BC01CD010E944900DC01CB0198AB02
:1030A0008FA70FC088EC90E09EA78DA78DA59EA549
:1030B0000197F1F79EA78DA78FA598A9019798ABC7
:1030C0008FA78FA598A9009769F714C069A97AA955
:1030D0008BA99CA90E944900DC01CB0198AB8FA76A
:1030E0008FA598A99CA78BA78BA59CA50197F1F705
:1030F0009CA78BA788E30E94E51980E090E0A0E8F8
:10310000BFE38FA398A7A9A7BAA76FA178A589A5A0
:103110009AA520E030E04AEF54E40E941F02DC014F
:10312000CB018BA39CA3ADA3BEA36BA17CA18DA15E
:103130009EA120E030E040E85FE30E94790388230D
:103140002CF481E090E09AA389A33FC06BA17CA1FD
:103150008DA19EA120E03FEF4FE757E40E941903A5
:1031600018164CF56FA178A589A59AA520E030E046
:1031700040E251E40E941F02DC01CB01BC01CD0101
:103180000E944900DC01CB019AA389A30FC088ECFF
:1031900090E098A38F8F8F8D98A10197F1F798A356
:1031A0008F8F89A19AA101979AA389A389A19AA136
:1031B000009769F714C06BA17CA18DA19EA10E940C
:1031C0004900DC01CB019AA389A389A19AA19E8F12
:1031D0008D8F8D8D9E8D0197F1F79E8F8D8F8FE056
:1031E0000E94E51980E090E0A0E8BFE3898F9A8F04
:1031F000AB8FBC8F698D7A8D8B8D9C8D20E030E0FC
:103200004AEF54E40E941F02DC01CB018D8B9E8BA0
:10321000AF8BB88F6D897E898F89988D20E030E0E3
:1032200040E85FE30E94790388232CF481E090E07A
:103230009C8B8B8B3FC06D897E898F89988D20E018
:103240003FEF4FE757E40E94190318164CF5698DBC
:103250007A8D8B8D9C8D20E030E040E251E40E941D
:103260001F02DC01CB01BC01CD010E944900DC0141
:10327000CB019C8B8B8B0FC088EC90E09A8B898B59
:1032800089899A890197F1F79A8B898B8B899C8917
:1032900001979C8B8B8B8B899C89009769F714C055
:1032A0006D897E898F89988D0E944900DC01CB0150
:1032B0009C8B8B8B8B899C89988B8F878F8598892A
:1032C0000197F1F7988B8F8781E00E94E51980E0E4
:1032D00090E0A0E4B0E48B879C87AD87BE876B85C8
:1032E0007C858D859E8520E030E04AEF54E40E9485
:1032F0001F02DC01CB018F839887A987BA876F8172
:10330000788589859A8520E030E040E85FE30E9477
:10331000790388232CF481E090E09E838D833FC065
:103320006F81788589859A8520E03FEF4FE757E4E4
:103330000E94190318164CF56B857C858D859E853A
:1033400020E030E040E251E40E941F02DC01CB01AA
:10335000BC01CD010E944900DC01CB019E838D831D
:103360000FC088EC90E09C838B838B819C810197BC
:10337000F1F79C838B838D819E8101979E838D8342
:103380008D819E81009769F714C06F81788589854A
:103390009A850E944900DC01CB019E838D838D813B
:1033A0009E819A83898389819A810197F1F79A8313
:1033B000898386E00E94E519E8960FB6F894DEBF8F
:1033C0000FBECDBFCF91DF910895DF93CF93CDB7DF
:1033D000DEB76D970FB6F894DEBF0FBECDBF8D8FF1
:1033E00083E062E040E00E94641483E063E040E038
:1033F0000E94641481E06D8D0E946E1683E064E08B
:1034000041E00E94641480E090E0A0E8BFE3898F6F
:103410009A8FAB8FBC8F698D7A8D8B8D9C8D20E0C0
:1034200030E04AEF54E40E941F02DC01CB018D8B97
:103430009E8BAF8BB88F6D897E898F89988D20E0A8
:1034400030E040E85FE30E94790388232CF481E0B8
:1034500090E09C8B8B8B3FC06D897E898F89988D86
:1034600020E03FEF4FE757E40E94190318164CF590
:10347000698D7A8D8B8D9C8D20E030E040E251E4A7
:103480000E941F02DC01CB01BC01CD010E9449005A
:10349000DC01CB019C8B8B8B0FC088EC90E09A8B6E
:1034A000898B89899A890197F1F79A8B898B8B8906
:1034B0009C8901979C8B8B8B8B899C89009769F7E2
:1034C00014C06D897E898F89988D0E944900DC0126
:1034D000CB019C8B8B8B8B899C89988B8F878F855D
:1034E00098890197F1F7988B8F8783E064E040E03B
:1034F0000E94641480E090E0A0E8BFE38B879C8783
:10350000AD87BE876B857C858D859E8520E030E00C
:103510004AEF54E40E941F02DC01CB018F8398879D
:10352000A987BA876F81788589859A8520E030E000
:1035300040E85FE30E94790388232CF481E090E067
:103540009E838D833FC06F81788589859A8520E031
:103550003FEF4FE757E40E94190318164CF56B85AF
:103560007C858D859E8520E030E040E251E40E941C
:103570001F02DC01CB01BC01CD010E944900DC012E
:10358000CB019E838D830FC088EC90E09C838B835E
:103590008B819C810197F1F79C838B838D819E8128
:1035A00001979E838D838D819E81009769F714C05A
:1035B0006F81788589859A850E944900DC01CB015D
:1035C0009E838D838D819E819A83898389819A814F
:1035D0000197F1F79A8389836D960FB6F894DEBF51
:1035E0000FBECDBFCF91DF910895DF93CF93CDB7BD
:1035F000DEB76D970FB6F894DEBF0FBECDBF8D8FCF
:1036000083E062E041E00E94641483E063E040E014
:103610000E94641481E06D8D0E946E1683E064E068
:1036200041E00E94641480E090E0A0E8BFE3898F4D
:103630009A8FAB8FBC8F698D7A8D8B8D9C8D20E09E
:1036400030E04AEF54E40E941F02DC01CB018D8B75
:103650009E8BAF8BB88F6D897E898F89988D20E086
:1036600030E040E85FE30E94790388232CF481E096
:1036700090E09C8B8B8B3FC06D897E898F89988D64
:1036800020E03FEF4FE757E40E94190318164CF56E
:10369000698D7A8D8B8D9C8D20E030E040E251E485
:1036A0000E941F02DC01CB01BC01CD010E94490038
:1036B000DC01CB019C8B8B8B0FC088EC90E09A8B4C
:1036C000898B89899A890197F1F79A8B898B8B89E4
:1036D0009C8901979C8B8B8B8B899C89009769F7C0
:1036E00014C06D897E898F89988D0E944900DC0104
:1036F000CB019C8B8B8B8B899C89988B8F878F853B
:1037000098890197F1F7988B8F8783E064E040E018
:103710000E94641480E090E0A0E8BFE38B879C8760
:10372000AD87BE876B857C858D859E8520E030E0EA
:103730004AEF54E40E941F02DC01CB018F8398877B
:10374000A987BA876F81788589859A8520E030E0DE
:1037500040E85FE30E94790388232CF481E090E045
:103760009E838D833FC06F81788589859A8520E00F
:103770003FEF4FE757E40E94190318164CF56B858D
:103780007C858D859E8520E030E040E251E40E94FA
:103790001F02DC01CB01BC01CD010E944900DC010C
:1037A000CB019E838D830FC088EC90E09C838B833C
:1037B0008B819C810197F1F79C838B838D819E8106
:1037C00001979E838D838D819E81009769F714C038
:1037D0006F81788589859A850E944900DC01CB013B
:1037E0009E838D838D819E819A83898389819A812D
:1037F0000197F1F79A8389836D960FB6F894DEBF2F
:103800000FBECDBFCF91DF910895DF93CF9300D04E
:1038100000D000D0CDB7DEB79E838D8319821A8287
:103820001B821C8215C029813A818D819E81FC01F9
:10383000E20FF31F80810E94F51A89819A81AB8182
:10384000BC810196A11DB11D89839A83AB83BC8382
:1038500029813A818D819E81FC01E20FF31F8081D5
:10386000882309F726960FB6F894DEBF0FBECDBFAA
:10387000CF91DF910895DF93CF9300D000D0CDB7E3
:10388000DEB769837A838B839C830F900F900F90B0
:103890000F90CF91DF910895DF93CF93CDB7DEB72F
:1038A0002E970FB6F894DEBF0FBECDBF81E00E9409
:1038B000E51980E090E0A0E4B0E48B879C87AD87B9
:1038C000BE876B857C858D859E8520E030E04AEF44
:1038D00054E40E941F02DC01CB018F839887A987E3
:1038E000BA876F81788589859A8520E030E040E845
:1038F0005FE30E94790388232CF481E090E09E83AB
:103900008D833FC06F81788589859A8520E03FEF60
:103910004FE757E40E94190318164CF56B857C8518
:103920008D859E8520E030E040E251E40E941F0238
:10393000DC01CB01BC01CD010E944900DC01CB01BF
:103940009E838D830FC088EC90E09C838B838B815A
:103950009C810197F1F79C838B838D819E810197D8
:103960009E838D838D819E81009769F714C06F813E
:10397000788589859A850E944900DC01CB019E8368
:103980008D838D819E819A83898389819A81019714
:10399000F1F79A8389832E960FB6F894DEBF0FBE97
:1039A000CDBFCF91DF910895DF93CF9300D0CDB7F6
:1039B000DEB789836A838981813021F48A818058C6
:1039C0000E94E5198981823021F48A8180540E9405
:1039D000E5190F900F90CF91DF910895DF93CF936A
:1039E000CDB7DEB72F970FB6F894DEBF0FBECDBFB1
:1039F0009F878E871B821A8221C08E859F852AE031
:103A000030E0B9010E94A32E8B838A81282F30E0F9
:103A10008B81482F405DCE010496FC01E20FF31F1D
:103A200040838E859F852AE030E0B9010E94A32E55
:103A3000CB019F878E878A818F5F8A838E859F8542
:103A40000097D9F68A818150898310C08981282FF7
:103A5000332727FD3095CE010496FC01E20FF31FBA
:103A600080810E94F51A8981815089838981882308
:103A70006CF72F960FB6F894DEBF0FBECDBFCF9177
:103A8000DF910895DF93CF93CDB7DEB782E066E094
:103A900041E00E945C1382E067E041E00E945C1319
:103AA00083E060E041E00E945C1383E061E041E07C
:103AB0000E945C1380E065E040E00E945C1380E0BF
:103AC00066E040E00E945C1380E062E040E00E941B
:103AD0005C1380E061E040E00E945C1382E066E0FD
:103AE00041E00E94641482E067E041E00E946414B7
:103AF00083E060E041E00E94641483E061E041E023
:103B00000E94641480E065E041E00E94641480E05B
:103B100066E041E00E94641480E062E041E00E94BF
:103B2000641480E061E041E00E946414CF91DF9171
:103B30000895DF93CF9300D00F92CDB7DEB78FEF0C
:103B40008B831A826CC08A81882F90E0FC01E45B31
:103B5000FD4F20818A81882F90E0FC01E05BFD4FC2
:103B60009081822F692F40E00E94641419823DC029
:103B70008981882F90E0FC01E559FD4F20818981E2
:103B8000882F90E0FC01EC5AFD4F9081822F692F25
:103B90000E94AF16882391F48981482F50E08A81D2
:103BA000282F30E0CA01880F991F880F991F820FB4
:103BB000931FFC01E85AFD4F80818B838981882FF8
:103BC00090E0FC01E559FD4F20818981882F90E02C
:103BD000FC01EC5AFD4F9081822F692F0E94AF1695
:103BE000882361F389818F5F89838981843008F418
:103BF000BFCF8A81882F90E0FC01E45BFD4F2081DC
:103C00008A81882F90E0FC01E05BFD4F9081822F3C
:103C1000692F41E00E9464148A818F5F8A838A81C0
:103C2000843008F490CF8B810F900F900F90CF913C
:103C3000DF910895DF93CF93CDB7DEB762970FB6CC
:103C4000F894DEBF0FBECDBF998B888B6A8B8889B5
:103C50009989892F992780658F870E949A108F856F
:103C60000E94EE1088890E945E118A890E945E116E
:103C70000E94BD1180E090E0A0E2B1E48B879C87B8
:103C8000AD87BE876B857C858D859E8520E030E085
:103C90004AEF54E40E941F02DC01CB018F83988716
:103CA000A987BA876F81788589859A8520E030E079
:103CB00040E85FE30E94790388232CF481E090E0E0
:103CC0009E838D833FC06F81788589859A8520E0AA
:103CD0003FEF4FE757E40E94190318164CF56B8528
:103CE0007C858D859E8520E030E040E251E40E9495
:103CF0001F02DC01CB01BC01CD010E944900DC01A7
:103D0000CB019E838D830FC088EC90E09C838B83D6
:103D10008B819C810197F1F79C838B838D819E81A0
:103D200001979E838D838D819E81009769F714C0D2
:103D30006F81788589859A850E944900DC01CB01D5
:103D40009E838D838D819E819A83898389819A81C7
:103D50000197F1F79A83898362960FB6F894DEBFD4
:103D60000FBECDBFCF91DF910895DF93CF93CDB735
:103D7000DEB762970FB6F894DEBF0FBECDBF9A8B49
:103D8000898B188A89899A89892F992780658F87D5
:103D90000E949A108F850E94EE1089890E945E1100
:103DA0000E94C4108F850E942611CE0140960E9469
:103DB00087110E94BD1180E090E0A0E2B1E48B8702
:103DC0009C87AD87BE876B857C858D859E8520E031
:103DD00030E04AEF54E40E941F02DC01CB018F83E4
:103DE0009887A987BA876F81788589859A8520E029
:103DF00030E040E85FE30E94790388232CF481E0FF
:103E000090E09E838D833FC06F81788589859A85F8
:103E100020E03FEF4FE757E40E94190318164CF5D6
:103E20006B857C858D859E8520E030E040E251E405
:103E30000E941F02DC01CB01BC01CD010E944900A0
:103E4000DC01CB019E838D830FC088EC90E09C83C6
:103E50008B838B819C810197F1F79C838B838D8170
:103E60009E8101979E838D838D819E81009769F746
:103E700014C06F81788589859A850E944900DC018C
:103E8000CB019E838D838D819E819A8389838981D5
:103E90009A810197F1F79A838983888962960FB690
:103EA000F894DEBF0FBECDBFCF91DF9108950F9381
:103EB0001F93DF93CF93CDB7DEB7C851D1400FB674
:103EC000F894DEBF0FBECDBF80E00E9459100E9463
:103ED000A3050E94E605FE01E551FF4F80E090E05A
:103EE000AAEFB4E480839183A283B3838E01095146
:103EF0001F4FFE01E551FF4F6081718182819381E7
:103F000020E030E04AEF54E40E941F02DC01CB01C4
:103F1000F80180839183A283B383FE01E951FF4FAF
:103F2000608171818281938120E030E040E85FE32D
:103F30000E947903882344F4FE01EB51FF4F81E096
:103F400090E09183808364C0FE01E951FF4F60815E
:103F500071818281938120E03FEF4FE757E40E9417
:103F6000190318160CF043C0FE01E551FF4F6081A4
:103F700071818281938120E030E040E251E40E942F
:103F80001F02DC01CB018E010B511F4FBC01CD0183
:103F90000E944900DC01CB01F801918380831FC09E
:103FA000FE01ED51FF4F88EC90E091838083FE018C
:103FB000ED51FF4F808191810197F1F7FE01ED51A5
:103FC000FF4F91838083DE01AB51BF4FFE01EB5168
:103FD000FF4F80819181019711969C938E93FE01F2
:103FE000EB51FF4F808191810097D1F627C08E0160
:103FF0000B511F4FFE01E951FF4F6081718182819A
:1040000093810E944900DC01CB01F80191838083F8
:10401000DE01AF51BF4FFE01EB51FF4F8081918117
:104020008D939C93FE01EF51FF4F80819181019709
:10403000F1F7FE01EF51FF4F91838083FE01EE5EA9
:10404000FE4F11821082FE01E05FFE4F118210824E
:10405000FE01E45FFE4F1082118212821382FE0184
:10406000E85FFE4F1082118212821382FE01EC5F24
:10407000FE4F8FEF9FEFAFEFBFEF80839183A2835F
:10408000B383FE01E050FF4F8FEF9FEFAFEFBFEF25
:1040900080839183A283B383FE01E450FF4F10829B
:1040A000118212821382FE01E550FF4F81E080836E
:1040B000FE01E650FF4F81E08083FE01E550FF4F97
:1040C0008081882359F00E944C1C8BE191E00E9472
:1040D000051CFE01E550FF4F1082EFCF0E94991D95
:1040E000FE01EC5EFE4F8083FE01EC5EFE4F8081A0
:1040F0008F3F19F3FE01EC5EFE4F8081813309F49E
:10410000CFC3FE01EC5EFE4F8081823309F0BCC05C
:104110000E947A07FE01E352FF4F80E090E0A1E6A3
:10412000B4E480839183A283B3838E0107521F4F2F
:10413000FE01E352FF4F608171818281938120E013
:1041400030E04AEF54E40E941F02DC01CB01F80189
:1041500080839183A283B383FE01E752FF4F608186
:1041600071818281938120E030E040E85FE30E942A
:104170007903882344F4FE01E952FF4F81E090E087
:104180009183808364C0FE01E752FF4F608171819B
:104190008281938120E03FEF4FE757E40E941903AB
:1041A00018160CF043C0FE01E352FF4F608171818D
:1041B0008281938120E030E040E251E40E941F02BE
:1041C000DC01CB018E0109521F4FBC01CD010E94C1
:1041D0004900DC01CB01F801918380831FC0FE01FF
:1041E000EB52FF4F88EC90E091838083FE01EB520D
:1041F000FF4F808191810197F1F7FE01EB52FF4F54
:1042000091838083DE01A952BF4FFE01E952FF4F27
:1042100080819181019711969C938E93FE01E952C2
:10422000FF4F808191810097D1F628C08E010952FD
:104230001F4FFE01E752FF4F6081718182819381A0
:104240000E944900DC01CB01F80191838083DE01EB
:10425000AD52BF4FFE01E952FF4F8081918111960F
:104260009C938E93FE01ED52FF4F808191810197C7
:10427000F1F7FE01ED52FF4F91838083FE01E5507F
:10428000FF4F81E0808319CF0E944C1C8CE291E0AB
:104290000E94051CFE01E153FF4F80E090E0A1E683
:1042A000B4E480839183A283B3838E0105531F4FAF
:1042B000FE01E153FF4F608171818281938120E093
:1042C00030E04AEF54E40E941F02DC01CB01F80108
:1042D00080839183A283B383FE01E553FF4F608106
:1042E00071818281938120E030E040E85FE30E94A9
:1042F0007903882344F4FE01E753FF4F81E090E007
:104300009183808364C0FE01E553FF4F608171811A
:104310008281938120E03FEF4FE757E40E94190329
:1043200018160CF043C0FE01E153FF4F608171810C
:104330008281938120E030E040E251E40E941F023C
:10434000DC01CB018E0107531F4FBC01CD010E9440
:104350004900DC01CB01F801918380831FC0FE017D
:10436000E953FF4F88EC90E091838083FE01E9538D
:10437000FF4F808191810197F1F7FE01E953FF4FD3
:1043800091838083DE01A753BF4FFE01E753FF4FA8
:1043900080819181019711969C938E93FE01E75342
:1043A000FF4F808191810097D1F628C08E0107537D
:1043B0001F4FFE01E553FF4F608171818281938120
:1043C0000E944900DC01CB01F80191838083DE016A
:1043D000AB53BF4FFE01E753FF4F80819181119690
:1043E0009C938E93FE01EB53FF4F80819181019747
:1043F000F1F7FE01EB53FF4F91838083FE01E550FF
:10440000FF4F81E0808359CE0E944C1C0E946209BC
:1044100089E190E00E94B51E882309F0BFC00E9488
:104420004C1C8BE391E00E94051CFE01EF53FF4FF3
:1044300080E090E0A1E6B4E480839183A283B3831B
:104440008E0103541F4FFE01EF53FF4F60817181B6
:104450008281938120E030E04AEF54E40E941F0201
:10446000DC01CB01F80180839183A283B383FE0139
:10447000E354FF4F608171818281938120E030E0BD
:1044800040E85FE30E947903882344F4FE01E55489
:10449000FF4F81E090E09183808364C0FE01E3548C
:1044A000FF4F608171818281938120E03FEF4FE770
:1044B00057E40E94190318160CF043C0FE01EF5395
:1044C000FF4F608171818281938120E030E040E282
:1044D00051E40E941F02DC01CB018E0105541F4FE5
:1044E000BC01CD010E944900DC01CB01F8019183A0
:1044F00080831FC0FE01E754FF4F88EC90E091835A
:104500008083FE01E754FF4F808191810197F1F78D
:10451000FE01E754FF4F91838083DE01A554BF4F16
:10452000FE01E554FF4F80819181019711969C9384
:104530008E93FE01E554FF4F808191810097D1F663
:1045400027C08E0105541F4FFE01E354FF4F6081C9
:104550007181828193810E944900DC01CB01F801C5
:1045600091838083DE01A954BF4FFE01E554FF4FC4
:10457000808191818D939C93FE01E954FF4F80814E
:1045800091810197F1F7FE01E954FF4F91838083F8
:1045900080E063E040E00E94641487C1809168027B
:1045A0008150809368020E944C1C8091680288238D
:1045B00009F0BEC089E491E00E94051C80E064E03F
:1045C00041E00E946414FE01ED54FF4F80E090E052
:1045D000A1E6B4E480839183A283B3838E01015565
:1045E0001F4FFE01ED54FF4F6081718182819381E5
:1045F00020E030E04AEF54E40E941F02DC01CB01CE
:10460000F80180839183A283B383FE01E155FF4FBC
:10461000608171818281938120E030E040E85FE336
:104620000E947903882344F4FE01E355FF4F81E0A3
:1046300090E09183808364C0FE01E155FF4F60816B
:1046400071818281938120E03FEF4FE757E40E9420
:10465000190318160CF043C0FE01ED54FF4F6081A2
:1046600071818281938120E030E040E251E40E9438
:104670001F02DC01CB018E0103551F4FBC01CD0190
:104680000E944900DC01CB01F801918380831FC0A7
:10469000FE01E555FF4F88EC90E091838083FE0199
:1046A000E555FF4F808191810197F1F7FE01E555B6
:1046B000FF4F91838083DE01A355BF4FFE01E35579
:1046C000FF4F80819181019711969C938E93FE01FB
:1046D000E355FF4F808191810097D1F6E1C08E01B3
:1046E00003551F4FFE01E155FF4F608171818281AB
:1046F00093810E944900DC01CB01F8019183808302
:10470000DE01A755BF4FFE01E355FF4F8081918128
:1047100011969C938E93FE01E755FF4F8081918106
:104720000197F1F7FE01E755FF4F91838083B8C0F1
:1047300084E591E00E94051CFE01EB55FF4F80E0EF
:1047400090E0A1E6B4E480839183A283B3838E01D9
:104750000F551F4FFE01EB55FF4F60817181828124
:10476000938120E030E04AEF54E40E941F02DC0114
:10477000CB01F80180839183A283B383FE01EF55BF
:10478000FF4F608171818281938120E030E040E8B9
:104790005FE30E947903882344F4FE01E156FF4F52
:1047A00081E090E09183808364C0FE01EF55FF4F6C
:1047B000608171818281938120E03FEF4FE757E470
:1047C0000E94190318160CF043C0FE01EB55FF4F71
:1047D000608171818281938120E030E040E251E488
:1047E0000E941F02DC01CB018E0101561F4FBC014C
:1047F000CD010E944900DC01CB01F8019183808347
:104800001FC0FE01E356FF4F88EC90E09183808348
:10481000FE01E356FF4F808191810197F1F7FE0180
:10482000E356FF4F91838083DE01A156BF4FFE0107
:10483000E156FF4F80819181019711969C938E9351
:10484000FE01E156FF4F808191810097D1F628C08B
:104850008E0101561F4FFE01EF55FF4F60817181A0
:10486000828193810E944900DC01CB01F801918390
:104870008083DE01A556BF4FFE01E156FF4F8081C8
:10488000918111969C938E93FE01E556FF4F808196
:1048900091810197F1F7FE01E556FF4F91838083E7
:1048A00080916802882309F0AFCD80916802882347
:1048B00011F40C94762EFE01E650FF4F8081882380
:1048C00009F480C10E944C1C82E691E00E94051C04
:1048D000FE01E956FF4F80E090E0AAEFB4E4808348
:1048E0009183A283B3838E010D561F4FFE01E956BB
:1048F000FF4F608171818281938120E030E04AEF37
:1049000054E40E941F02DC01CB01F80180839183F3
:10491000A283B383FE01ED56FF4F608171818281D6
:10492000938120E030E040E85FE30E947903882330
:1049300044F4FE01EF56FF4F81E090E091838083C5
:1049400064C0FE01ED56FF4F6081718182819381C9
:1049500020E03FEF4FE757E40E94190318160CF0D0
:1049600043C0FE01E956FF4F6081718182819381CE
:1049700020E030E040E251E40E941F02DC01CB0164
:104980008E010F561F4FBC01CD010E944900DC0172
:10499000CB01F801918380831FC0FE01E157FF4FD7
:1049A00088EC90E091838083FE01E157FF4F808186
:1049B00091810197F1F7FE01E157FF4F91838083C9
:1049C000DE01AF56BF4FFE01EF56FF4F8081918150
:1049D000019711969C938E93FE01EF56FF4F8081B5
:1049E00091810097D1F627C08E010F561F4FFE010F
:1049F000ED56FF4F60817181828193810E94490051
:104A0000DC01CB01F80191838083DE01A357BF4F06
:104A1000FE01EF56FF4F808191818D939C93FE01A3
:104A2000E357FF4F808191810197F1F7FE01E35732
:104A3000FF4F918380830E944C1C82E791E00E948B
:104A4000051C82E060E00E94D41C8FE791E00E9488
:104A5000051CFE01E757FF4F80E090E0A1E6B4E4BB
:104A600080839183A283B3838E010B571F4FFE0176
:104A7000E757FF4F608171818281938120E030E0B0
:104A80004AEF54E40E941F02DC01CB01F80180834D
:104A90009183A283B383FE01EB57FF4F6081718145
:104AA0008281938120E030E040E85FE30E94790357
:104AB000882344F4FE01ED57FF4F81E090E091839D
:104AC000808364C0FE01EB57FF4F6081718182815A
:104AD000938120E03FEF4FE757E40E941903181637
:104AE0000CF043C0FE01E757FF4F60817181828166
:104AF000938120E030E040E251E40E941F02DC019B
:104B0000CB018E010D571F4FBC01CD010E94490002
:104B1000DC01CB01F801918380831FC0FE01EF57B8
:104B2000FF4F88EC90E091838083FE01EF57FF4FA9
:104B3000808191810197F1F7FE01EF57FF4F91833B
:104B40008083DE01AD57BF4FFE01ED57FF4F8081DF
:104B50009181019711969C938E93FE01ED57FF4F23
:104B6000808191810097D1F628C08E010D571F4F8B
:104B7000FE01EB57FF4F60817181828193810E941A
:104B80004900DC01CB01F80191838083DE01A1584B
:104B9000BF4FFE01ED57FF4F8081918111969C938D
:104BA0008E93FE01E158FF4F808191810197F1F7CB
:104BB000FE01E158FF4F91838083FE01E650FF4FD5
:104BC000108279CE0E94991DFE01E750FF4F80832D
:104BD000FE01E750FF4F80818F3F09F46CCEFE014C
:104BE000E750FF4F8081813309F035C30E944C1C90
:104BF00081E991E00E94051C82E060E00E94D41CE3
:104C00008AE991E00E94051C0E94991DFE01E8506E
:104C1000FF4F8083FE01E850FF4F80818F3F09F4F2
:104C200065C2FE01E850FF4F8081813309F0C9C0A1
:104C300080E063E041E00E9464140E944C1C84EA1E
:104C400091E00E94051CFE01E558FF4F80E090E8CE
:104C5000ABE3B5E480839183A283B3838E010958CB
:104C60001F4FFE01E558FF4F608171818281938162
:104C700020E030E04AEF54E40E941F02DC01CB0147
:104C8000F80180839183A283B383FE01E958FF4F2B
:104C9000608171818281938120E030E040E85FE3B0
:104CA0000E947903882344F4FE01EB58FF4F81E012
:104CB00090E09183808364C0FE01E958FF4F6081DA
:104CC00071818281938120E03FEF4FE757E40E949A
:104CD000190318160CF043C0FE01E558FF4F608120
:104CE00071818281938120E030E040E251E40E94B2
:104CF0001F02DC01CB018E010B581F4FBC01CD01FF
:104D00000E944900DC01CB01F801918380831FC020
:104D1000FE01ED58FF4F88EC90E091838083FE0107
:104D2000ED58FF4F808191810197F1F7FE01ED5819
:104D3000FF4F91838083DE01AB58BF4FFE01EB58DC
:104D4000FF4F80819181019711969C938E93FE0174
:104D5000EB58FF4F808191810097D1F628C08E01DA
:104D60000B581F4FFE01E958FF4F6081718182810E
:104D700093810E944900DC01CB01F801918380837B
:104D8000DE01AF58BF4FFE01EB58FF4F808191818C
:104D900011969C938E93FE01EF58FF4F8081918175
:104DA0000197F1F7FE01EF58FF4F91838083FE01D9
:104DB000E650FF4F81E08083FE01E850FF4F1082F4
:104DC0007ACDFE01E850FF4F8081823309F0C9C0DF
:104DD00080E063E040E00E9464140E944C1C8BEA77
:104DE00091E00E94051CFE01E359FF4F80E090E82E
:104DF000ABE3B5E480839183A283B3838E0107592B
:104E00001F4FFE01E359FF4F6081718182819381C1
:104E100020E030E04AEF54E40E941F02DC01CB01A5
:104E2000F80180839183A283B383FE01E759FF4F8A
:104E3000608171818281938120E030E040E85FE30E
:104E40000E947903882344F4FE01E959FF4F81E071
:104E500090E09183808364C0FE01E759FF4F608139
:104E600071818281938120E03FEF4FE757E40E94F8
:104E7000190318160CF043C0FE01E359FF4F60817F
:104E800071818281938120E030E040E251E40E9410
:104E90001F02DC01CB018E0109591F4FBC01CD015E
:104EA0000E944900DC01CB01F801918380831FC07F
:104EB000FE01EB59FF4F88EC90E091838083FE0167
:104EC000EB59FF4F808191810197F1F7FE01EB597A
:104ED000FF4F91838083DE01A959BF4FFE01E9593D
:104EE000FF4F80819181019711969C938E93FE01D3
:104EF000E959FF4F808191810097D1F628C08E013A
:104F000009591F4FFE01E759FF4F6081718182816E
:104F100093810E944900DC01CB01F80191838083D9
:104F2000DE01AD59BF4FFE01E959FF4F80819181EC
:104F300011969C938E93FE01ED59FF4F80819181D4
:104F40000197F1F7FE01ED59FF4F91838083FE0138
:104F5000E650FF4F81E08083FE01E850FF4F108252
:104F6000AACC0E944C1CFE01E850FF4F80810E9499
:104F7000F51AFE01E15AFF4F80E090E0A1E6B4E4AB
:104F800080839183A283B3838E01055A1F4FFE0154
:104F9000E15AFF4F608171818281938120E030E08E
:104FA0004AEF54E40E941F02DC01CB01F801808328
:104FB0009183A283B383FE01E55AFF4F6081718123
:104FC0008281938120E030E040E85FE30E94790332
:104FD000882344F4FE01E75AFF4F81E090E091837B
:104FE000808364C0FE01E55AFF4F60817181828138
:104FF000938120E03FEF4FE757E40E941903181612
:105000000CF043C0FE01E15AFF4F60817181828143
:10501000938120E030E040E251E40E941F02DC0175
:10502000CB018E01075A1F4FBC01CD010E944900E0
:10503000DC01CB01F801918380831FC0FE01E95A96
:10504000FF4F88EC90E091838083FE01E95AFF4F87
:10505000808191810197F1F7FE01E95AFF4F918319
:105060008083DE01A75ABF4FFE01E75AFF4F8081C0
:105070009181019711969C938E93FE01E75AFF4F01
:10508000808191810097D1F628C08E01075A1F4F69
:10509000FE01E55AFF4F60817181828193810E94F8
:1050A0004900DC01CB01F80191838083DE01AB5A1A
:1050B000BF4FFE01E75AFF4F8081918111969C936B
:1050C0008E93FE01EB5AFF4F808191810197F1F79A
:1050D000FE01EB5AFF4F91838083FE01E650FF4FA4
:1050E0001082FE01E850FF4F1082E5CBFE01EF5A1F
:1050F000FF4F80E090E0AAEFB3E480839183A28326
:10510000B3838E01035B1F4FFE01EF5AFF4F608197
:1051100071818281938120E030E04AEF54E40E9463
:105120001F02DC01CB01F80180839183A283B3834A
:10513000FE01E35BFF4F608171818281938120E0FA
:1051400030E040E85FE30E947903882344F4FE01E5
:10515000E55BFF4F81E090E09183808364C0FE01B6
:10516000E35BFF4F608171818281938120E03FEF9B
:105170004FE757E40E94190318160CF043C0FE01D4
:10518000EF5AFF4F608171818281938120E030E08E
:1051900040E251E40E941F02DC01CB018E01055B5D
:1051A0001F4FBC01CD010E944900DC01CB01F80179
:1051B000918380831FC0FE01E75BFF4F88EC90E086
:1051C00091838083FE01E75BFF4F8081918101978E
:1051D000F1F7FE01E75BFF4F91838083DE01A55B62
:1051E000BF4FFE01E55BFF4F8081918101971196D2
:1051F0009C938E93FE01E55BFF4F80819181009728
:10520000D1F602CD8E01055B1F4FFE01E35BFF4F20
:1052100060817181828193810E944900DC01CB0110
:10522000F80191838083DE01A95BBF4FFE01E55B3E
:10523000FF4F8081918111969C938E93FE01E95BD3
:10524000FF4F808191810197F1F7FE01E95BFF4FEC
:1052500091838083D9CCFE01E750FF4F8081823358
:1052600009F0BDC10E944C1C83EB91E00E94051C1B
:1052700082E060E00E94D41C8FEB91E00E94051C4C
:105280000E94991DFE01E950FF4F8083FE01E95005
:10529000FF4F80818F3F09F42FC1FE01E950FF4F7E
:1052A0008081813309F09AC00E94190D80E00E942C
:1052B000A8170E944C1C8DEC91E00E94051CFE0179
:1052C000ED5BFF4F80E090E8ABE3B5E48083918332
:1052D000A283B3838E01015C1F4FFE01ED5BFF4F84
:1052E000608171818281938120E030E04AEF54E453
:1052F0000E941F02DC01CB01F80180839183A2830D
:10530000B383FE01FF96608171818281938120E0E9
:1053100030E040E85FE30E94790388232CF481E0C9
:1053200090E09EAF8DAF46C0FE01FF966081718117
:105330008281938120E03FEF4FE757E40E941903F9
:10534000181664F5FE01ED5BFF4F6081718182816B
:10535000938120E030E040E251E40E941F02DC0132
:10536000CB01BC01CD010E944900DC01CB019EAF05
:105370008DAF0FC088EC90E09CAF8BAF8BAD9CAD38
:105380000197F1F79CAF8BAF8DAD9EAD01979EAFAE
:105390008DAF8DAD9EAD009769F716C0FE01FF96EB
:1053A00060817181828193810E944900DC01CB017F
:1053B0009EAF8DAF8DAD9EAD9AAF89AF89AD9AADE1
:1053C0000197F1F79AAF89AFFE01E650FF4F81E0F8
:1053D0008083FE01E950FF4F10826DCAFE01E95043
:1053E000FF4F8081823309F087C00E94190D84EB42
:1053F0000E94A8170E944C1C89ED91E00E94051C98
:1054000080E090E8ABE3B5E48DAB9EABAFABB8AF5B
:105410006DA97EA98FA998AD20E030E04AEF54E451
:105420000E941F02DC01CB0189AB9AABABABBCABDA
:1054300069A97AA98BA99CA920E030E040E85FE344
:105440000E94790388232CF481E090E098AB8FA729
:105450003FC069A97AA98BA99CA920E03FEF4FE73B
:1054600057E40E94190318164CF56DA97EA98FA95F
:1054700098AD20E030E040E251E40E941F02DC01E0
:10548000CB01BC01CD010E944900DC01CB0198ABEE
:105490008FA70FC088EC90E09EA78DA78DA59EA535
:1054A0000197F1F79EA78DA78FA598A9019798ABB3
:1054B0008FA78FA598A9009769F714C069A97AA941
:1054C0008BA99CA90E944900DC01CB0198AB8FA756
:1054D0008FA598A99CA78BA78BA59CA50197F1F7F1
:1054E0009CA78BA7FE01E650FF4F81E08083FE0161
:1054F000E950FF4F1082DFC980E090E0AAEFB3E4EB
:105500008FA398A7A9A7BAA76FA178A589A59AA5DF
:1055100020E030E04AEF54E40E941F02DC01CB019E
:105520008BA39CA3ADA3BEA36BA17CA18DA19EA1C7
:1055300020E030E040E85FE30E94790388232CF408
:1055400081E090E09AA389A33FC06BA17CA18DA1CB
:105550009EA120E03FEF4FE757E40E941903181681
:105560004CF56FA178A589A59AA520E030E040E22E
:1055700051E40E941F02DC01CB01BC01CD010E945D
:105580004900DC01CB019AA389A30FC088EC90E00D
:1055900098A38F8F8F8D98A10197F1F798A38F8F84
:1055A00089A19AA101979AA389A389A19AA1009799
:1055B00069F766CE6BA17CA18DA19EA10E944900D6
:1055C000DC01CB019AA389A389A19AA19E8F8D8F1B
:1055D0008D8D9E8D0197F1F79E8F8D8F51CEFE019F
:1055E000E750FF4F8081833309F033C2FE01ED5055
:1055F000FF4F1082118212821382FE01E051FF4F91
:105600001182108225C087E00E946B179C0140E048
:1056100050E0BE016D507F4FFE01ED50FF4F808185
:105620009181A281B381820F931FA41FB51FFB013B
:1056300080839183A283B383DE01A051BF4FFE011B
:10564000E051FF4F80819181019611969C938E933A
:10565000FE01E051FF4F808191818A3091059CF2DB
:10566000FE01ED50FF4F80819181A281B3812AE03C
:1056700030E040E050E0BC01CD010E94B72EDA01DD
:10568000C901FE01EE5EFE4F91838083FE01EE5E56
:10569000FE4F80819181009709F444C1FE01EE5EC6
:1056A000FE4F80819181CC01A0E0B0E020E03AE0A3
:1056B00040E050E0BC01CD010E94842EDC01CB0112
:1056C000FE01E85FFE4F072E7AE0B695A795979505
:1056D00087957A95D1F7702D80839183A283B383C8
:1056E0008E01045F1E4FFE01E85FFE4F80819181B5
:1056F000A281B3812AE030E040E050E0BC01CD015E
:105700000E94B72EDA01C901F80180839183A28338
:10571000B383FE01E45FFE4F20813181FE01EC5F27
:10572000FE4F80819181A901481B590BCA01C95EB6
:10573000DE4F99838883C751D140C95EDE4F88818F
:105740009981C751D14099237CF4C95EDE4FE8812D
:10575000F981C751D140F095E195FF4FC95EDE4F09
:10576000F983E883C751D140C95EDE4F4881598132
:10577000C751D140141615060CF0DAC00E944C1C1B
:1057800087EE91E00E94051C81E066E00E94D41C37
:10579000FE01E45FFE4F808191810E94EE1C8DEE40
:1057A00091E00E94051CFE01E45FFE4F8081918123
:1057B000A281B38184319105A105B105F0F0FE010C
:1057C000E45FFE4F80819181A281B3818432910593
:1057D000A105B10590F48FE790E00E946B0E82E086
:1057E00060E00E94D41C80EF91E00E94051C82E0E2
:1057F00065E040E00E94641483C0FE01E45FFE4F58
:1058000080819181A281B3818A319105A105B10581
:10581000F0F0FE01E45FFE4F80819181A281B381AF
:105820008F319105A105B10590F48FEB90E00E94B6
:105830006B0E82E060E00E94D41C8FEF91E00E942A
:10584000051C82E065E040E00E94641459C0FE013E
:10585000E45FFE4F80819181A281B3818F319105F8
:10586000A105B105F0F0FE01E45FFE4F808191815A
:10587000A281B3818E329105A105B10590F48FEF1D
:1058800090E00E946B0E82E060E00E94D41C8DE0EC
:1058900092E00E94051C82E065E040E00E946414F2
:1058A0002FC0FE01E45FFE4F80819181A281B38110
:1058B0008E329105A105B10590F080E090E00E9444
:1058C0006B0E82E060E00E94D41C8CE192E00E94AA
:1058D000051C82E065E041E00E94641411C080E094
:1058E00090E00E946B0E82E060E00E94D41C8BE28C
:1058F00092E00E94051C82E065E040E00E94641492
:105900000E94370E9E012C5F3E4FFE01E45FFE4F6A
:1059100080819181A281B381F90180839183A283E7
:10592000B38306C00E944C1C83E392E00E94051CD6
:105930000E94991DFE01EE50FF4F8083FE01EE5044
:10594000FF4F80818F3F91F0FE01EE50FF4F80812D
:10595000803361F4FE01E650FF4F81E0808382E0F6
:1059600065E040E00E9464140C945B2480E090E0C9
:10597000AAEFB3E4898F9A8FAB8FBC8F698D7A8D34
:105980008B8D9C8D20E030E04AEF54E40E941F0292
:10599000DC01CB018D8B9E8BAF8BB88F6D897E899F
:1059A0008F89988D20E030E040E85FE30E94790322
:1059B00088232CF481E090E09C8B8B8B3FC06D8919
:1059C0007E898F89988D20E03FEF4FE757E40E9452
:1059D000190318164CF5698D7A8D8B8D9C8D20E0FE
:1059E00030E040E251E40E941F02DC01CB01BC0127
:1059F000CD010E944900DC01CB019C8B8B8B0FC039
:105A000088EC90E09A8B898B89899A890197F1F7C4
:105A10009A8B898B8B899C8901979C8B8B8B8B892B
:105A20009C89009769F7E2CD6D897E898F89988D71
:105A30000E944900DC01CB019C8B8B8B8B899C895C
:105A4000988B8F878F8598890197F1F7988B8F872F
:105A5000CDCDFE01E750FF4F8081843311F00C94CF
:105A60005B2480E00E946B17FE01E05FFE4F918394
:105A70008083FE01E05FFE4F80819181009709F4F1
:105A8000A9C0FE01E05FFE4F80819181CC01A0E0C2
:105A9000B0E020E03AE040E050E0BC01CD010E94DF
:105AA000842EDC01CB01FE01E450FF4F072E7AE08B
:105AB000B695A795979587957A95D1F7702D8083A0
:105AC0009183A283B383FE01E450FF4F2081318193
:105AD000FE01E050FF4F80819181A901481B590BC5
